:040000000C94D0008C
:100004000C944F010C9400000C9400000C9400001C
:100014000C9400000C9400000C9400000C9400005C
:100024000C9400000C9400000C9400000C9400004C
:100034000C9400000C9400000C9400000C9400003C
:100044000C9400000C9400000C9400000C9400002C
:100054001027E80364000A000100001000011000EA
:1000640001005363616E20524649443A00506C6566
:10007400617365205363616E20796F7572205246F7
:100084004944205441473A200A003136303036364C
:100094004135454333390056616C696420436172CC
:1000A4006400446F6F7220756E6C6F636B656400DF
:1000B40054686520436172642069732056414C4939
:1000C400442C20446F6F722077696C6C2062652029
:1000D400756E6C6F636B65642E200A00496E7661E1
:1000E4006C6964204361726400446F6F72206C6FAA
:1000F400636B6564005468652043617264206973AE
:1001040020494E56414C49442C20446F6F72207252
:10011400656D61696E73206C6F636B65642E200A74
:1001240000446576656C6F7065642062793A004EB0
:100134006172696D616E205A696169650054696D07
:10014400653A20253032753A253032753A253032F9
:1001540075200041637475616C2054656D703D2594
:10016400750080C00B00600266000D006B028E00FB
:100174000B0078029B000E008302A6000D00910282
:10018400E0000C009E02ED000E00AA0225010E0004
:10019400B80233010200E40266010000F894EE277D
:1001A400ECBBF1E0FBBFEBBFE5BF8DE0A2E0BB27FA
:1001B400ED938A95E9F780E098E0A0E6ED93019746
:1001C400E9F7E8E6F1E085919591009761F0A59152
:1001D400B59105901590BF01F00105900D9201971E
:1001E400E1F7FB01F0CFEFE5EDBFE8E0EEBFC0E6DD
:1001F400D2E00C94D4011A931A2FE12FE06CE7B9E2
:100204008BE18A95F1F7369A349BFECF349AE4B1A8
:10021400F5B1B7C1BA93AA931A930A93EA81FB8101
:1002240066277727A0E2B1EA87E090E029D43197E6
:100234008F01E8E1EAB9E6E8E0BD09B9E12FF07021
:10024400E0BD1981088172C15F9BFECFECB10895B6
:100254001A931A2FA091E202AC30A8F4E091E202C2
:10026400EF5FE093E202E150F0E0EB52FD4F1083C8
:10027400A091E202AC3031F4E0E0E093E102E1E08D
:10028400E093E30203C0E0E0E093E2027AC1E0E03D
:10029400E093E202E093E30208950A921A92FA923A
:1002A4006A937A938A939A93AA93BA93EA93FA9362
:1002B400EFB7EA932497E0E0E883E983EA83EB83EA
:1002C4001A930AD13CD3A0E6B2E023D1E1E7F0E0EF
:1002D4003AD3DDDFA981BA818B819C81A838E3E11F
:1002E400BE07E0E08E07E0E09E0708F04AC05F9B8F
:1002F40009C0AADF1E2FA12FABDFE0E0E983EA8368
:10030400EB83EC83E091E302E03059F1E5D0E5EDD5
:10031400F2E0FA93EA93EBE6F2E0FA93EA93ACE0C4
:100324004BD1E03079F40BD3A8E7B2E012D3A3E8C1
:10033400B2E0EFD0E4EBF0E006D3C09AA8E8B3E172
:10034400BDD30AC0FCD2A1E9B2E003D3AEE9B2E066
:10035400E0D0E9EFF0E0F7D2C098A8EEB3E0AED376
:1003640010C0A1E0B0E0AAD3E981FA816B817C815D
:10037400EF5FFF4F6F4F7F4FE983FA836B837C837B
:10038400A9CFAAD018812596E991EFBFF991E991F7
:10039400B991A9919991899179916991F99019905B
:1003A40009901895609710E000E030E0E0E0EABBC7
:1003B400EBBBE1E0E7BBE0E0E8BBE7EFE4BBE0EC8C
:1003C400E7B9E3E8E6B9A0E1B3D086D0A0E8B5E2A6
:1003D40021DFEBB7E064EBBFE5B7E260E5BFEAB766
:1003E400E064EABF7894ABD2AAEAB2E0B2D2A8EB56
:1003F400B2E0B4D21F5F1C3310F010E00F5F0C3377
:1004040010F000E03F5F383120F0E0E01E2F0E2FA7
:100414003E2FFE01FA93EA93E1E4F1E0FA93EA93C2
:10042400E32FA0D2E02F9ED2E12F9CD28CE03FD2CA
:10043400609685D2DE016DD0A0E0DDDE2F01E6EC12
:10044400F2E0FA93EA93E7E5F1E0FA93EA93F20132
:10045400EED2662777272DD384E029D22896E0E0D0
:10046400EA93A1E027D0A6ECB2E078D2C3CFFFCFC5
:100474001A931A2FE5B3EF70AE2FE12FE07FEA2B2A
:10048400E5BB8DE08A95F1F7AA9A8DE08A95F1F79C
:10049400AA988DE08A95F1F774C0AA93A881E8DF41
:1004A400E881E295E883A881E3DF85E88A95F1F79E
:1004B4000C94FC021A930A931A2F0A81E12FF0E09C
:1004C400EC51FD4FE081E00FAE2FE7DF702E612E7F
:1004D4001981088123960895A2E049D2ACE0DDDFBA
:1004E400A1E045D2E0E06E2E7E2E08951A931A2FD5
:1004F4001A3011F0791438F0E0E0EA936394A62DF1
:10050400D9DF1A30F1F17394A89AA12FC6DFA89805
:1005140038C065D29D01D9012F5F3F4FEC911E2F4A
:10052400E03019F0A12FE2DFF6CF60D224960895CF
:100534001A931A2FE4B3E06FE4BBA29AA09AA19A8B
:10054400AA98A898A998912EE12FE058E093E60282
:10055400E12FE054E093E702A4E1B0E0AFD20BD284
:100564000AD209D2A0E284DF88EC90E00197F1F787
:10057400A8E293DFA4E091DFA5E88FDFA6E08DDF9A
:10058400ABDF19910895BA93AA93A991B991EE2773
:10059400FF276D91662311F03196FBCF0895BA932E
:1005A400AA93AA27BB27E991F9910590002011F09D
:1005B4001196FBCFFD010895AA93662777278991A9
:1005C400E991F991A991B991882349F08A956D919E
:1005D4007191671721F46623B9F7EE270895671B15
:1005E400E1F3E1E008F4E2500895AA935D9BFECFA5
:1005F400E881ECB921960895F2D18D013C81A32FB5
:10060400F4DFD801BFD1F2D125960895E6D19D013A
:100614005E81129646D23097E1F0D901149641D208
:100624008F01309759F00230E0E01E0760F0F801C6
:1006340031978F01D9011496ED93FC93D901129649
:10064400A1D131975083D9012CD2FF230AF09AD13A
:1006540005C0D901EFEFFFEFED93FC93C5D12796C9
:100664000895BA93AA932697B8D110E0AC85BD85B6
:10067400E0E0F0E0ED93FC93EA89FB893196EA8BA4
:10068400FB8B3197E4912E2FE03009F409C1E12F5F
:10069400E03031F4253211F411E001C079D1FFC00A
:1006A400E130A1F4253211F473D1F8C012E040E036
:1006B40000E02D3211F401E0F2C02B3211F44BE2D0
:1006C400EEC0203211F440E2EAC002C0E23039F454
:1006D40050E013E0203311F40068E1C003C0E330BC
:1006E40009F0DDC0203310F02A3308F007C0AAE077
:1006F4005A9F502DE22FE0535E0FD1C0E22FE33614
:1007040039F44DD1E889F989A481AA934ED1C6C0A0
:10071400E33729F444D14FD136DF1E2F07C0E03729
:1007240049F43DD148D13BDF1E2F086002600F77AA
:1007340030E038C0E43611F0E93611F4046002C048
:10074400E53731F4E4E5F0E0EE83FF8315E00CC017
:10075400E83511F4086003C0E83709F09FC0EEE5FE
:10076400F0E0EE83FF8314E002FF15C018D1A889DE
:10077400B9891496ED91FD91EA87FB87AB85AA238D
:1007840022F441D1EA87FB874DE2403011F01F5F2C
:1007940001C00B7F07C003D1A889B989149681D100
:1007A400EA87FB8700FD10C0151770F407FF08C027
:1007B40002FF04C00B7F242F115001C020E301C0AD
:1007C40020E2E6D05150F0CF312F01FF16C0303077
:1007D40099F003FF06C0EE81FF812591EE83FF832C
:1007E40005C0AE81BF812D91AE83BF83D1D050307F
:1007F40009F051503150EBCF48C020E3EE81FF8126
:1008040054D1E887F987EE81FF813296EE83FF8326
:10081400E885F985AA85BB85AE17BF0750F02F5F21
:10082400A885B985EA85FB85EA1BFB0BEA87FB876C
:10083400EFCF2A3328F003FF02C0295F01C0295DEE
:1008440004FD19C0213320F4A885B985119709F452
:1008540009C0531710F000FF01C011C020E207FFC8
:100864000AC020E3006102FF06C00B7F4A939DD0BB
:10087400503009F051508CD0503009F05150315063
:10088400A885B985129708F0B8CF00FF07C050308B
:1008940029F05150E0E2EA9388D0F9CF10E0ECCE91
:1008A400AC85BD85ED91FD919FD064960895FF922E
:1008B400F82E269792D0FE019ED046855785042EA9
:1008C400052A19F4EFEFFFEF19C0DE01189697D04F
:1008D4008D0148875987E0E0EA87EB87DE011C96A3
:1008E40074D0E8E0F3E0FA93EA93DE011C96B9DEF3
:1008F4009F01A885B985E0E0EC93F90175D02C96A9
:10090400FF900895FF92F82E26971A930A93DE011A
:10091400149675D08D01E0E0EC83ED83EE83EF83D4
:10092400DE01189652D0EEEFF2E0FA93EA93DE017C
:10093400189697DE198108812896FF900895E0E0C3
:10094400EA93A0E0B7CDFA93EA9380E0DBDF229646
:100954000895DFDDE0E0EA93A1E0ACCDDADDA8EEB6
:10096400B3E0ACC0FF2766277727A3D0089595DDB1
:10097400A3E0B0E0A3C0A0E37BDD88EC90E00197A6
:10098400F1F70895ED91FD913196FE93EE9308955C
:100994002A93AD85BE85EF85F88909950895E88980
:1009A400F9893497E88BF98B0895AD85BE85EF8579
:1009B400F88909950895A889B9891496ED91FD914E
:1009C400EE83FF83AE81BF81089519D0ED91FD912F
:1009D400FA93EA931A930A9308955A934A933A938B
:1009E4002A931A930A9308955D814C813B812A814D
:1009F4001981088108950024EF0DF01D0895002445
:100A0400AF0DB01D0895F195E195F0400895F0956E
:100A140060957095E195FF4F6F4F7F4F0895B095A6
:100A240080959095A195BF4F8F4F9F4F0895F69550
:100A3400E795F695E79508953F934F935F930024C8
:100A44001124A00130E2AA0FBB1F881F991F001CAC
:100A5400111C441F551F0E1A1F0A460B570B28F46E
:100A64000E0E1F1E461F571F01C0A1603A9559F76D
:100A7400FD01BC01D001CA015F914F913F910895DE
:100A840004D0DADF0EF4C3DF0895E89477FF02C0E0
:100A9400BEDF689497FF04C0C2DF00F8039400FA35
:100AA4000895ED91FC91119708950590F491E02D2E
:100AB40008957A936A93FA93EA930895109639F015
:100AC400A89580ED97E00197F1F71197C9F708957C
:00000001FF
